{
  "contractName": "ArtCollectible",
  "abi": [
    {
      "inputs": [],
      "stateMutability": "nonpayable",
      "type": "constructor"
    },
    {
      "anonymous": false,
      "inputs": [
        {
          "indexed": true,
          "internalType": "address",
          "name": "account",
          "type": "address"
        },
        {
          "indexed": true,
          "internalType": "address",
          "name": "operator",
          "type": "address"
        },
        {
          "indexed": false,
          "internalType": "bool",
          "name": "approved",
          "type": "bool"
        }
      ],
      "name": "ApprovalForAll",
      "type": "event"
    },
    {
      "anonymous": false,
      "inputs": [
        {
          "indexed": true,
          "internalType": "address",
          "name": "previousOwner",
          "type": "address"
        },
        {
          "indexed": true,
          "internalType": "address",
          "name": "newOwner",
          "type": "address"
        }
      ],
      "name": "OwnershipTransferred",
      "type": "event"
    },
    {
      "anonymous": false,
      "inputs": [
        {
          "indexed": true,
          "internalType": "address",
          "name": "operator",
          "type": "address"
        },
        {
          "indexed": true,
          "internalType": "address",
          "name": "from",
          "type": "address"
        },
        {
          "indexed": true,
          "internalType": "address",
          "name": "to",
          "type": "address"
        },
        {
          "indexed": false,
          "internalType": "uint256[]",
          "name": "ids",
          "type": "uint256[]"
        },
        {
          "indexed": false,
          "internalType": "uint256[]",
          "name": "values",
          "type": "uint256[]"
        }
      ],
      "name": "TransferBatch",
      "type": "event"
    },
    {
      "anonymous": false,
      "inputs": [
        {
          "indexed": true,
          "internalType": "address",
          "name": "operator",
          "type": "address"
        },
        {
          "indexed": true,
          "internalType": "address",
          "name": "from",
          "type": "address"
        },
        {
          "indexed": true,
          "internalType": "address",
          "name": "to",
          "type": "address"
        },
        {
          "indexed": false,
          "internalType": "uint256",
          "name": "id",
          "type": "uint256"
        },
        {
          "indexed": false,
          "internalType": "uint256",
          "name": "value",
          "type": "uint256"
        }
      ],
      "name": "TransferSingle",
      "type": "event"
    },
    {
      "anonymous": false,
      "inputs": [
        {
          "indexed": false,
          "internalType": "string",
          "name": "value",
          "type": "string"
        },
        {
          "indexed": true,
          "internalType": "uint256",
          "name": "id",
          "type": "uint256"
        }
      ],
      "name": "URI",
      "type": "event"
    },
    {
      "inputs": [
        {
          "internalType": "address",
          "name": "account",
          "type": "address"
        },
        {
          "internalType": "uint256",
          "name": "id",
          "type": "uint256"
        }
      ],
      "name": "balanceOf",
      "outputs": [
        {
          "internalType": "uint256",
          "name": "",
          "type": "uint256"
        }
      ],
      "stateMutability": "view",
      "type": "function"
    },
    {
      "inputs": [
        {
          "internalType": "address[]",
          "name": "accounts",
          "type": "address[]"
        },
        {
          "internalType": "uint256[]",
          "name": "ids",
          "type": "uint256[]"
        }
      ],
      "name": "balanceOfBatch",
      "outputs": [
        {
          "internalType": "uint256[]",
          "name": "",
          "type": "uint256[]"
        }
      ],
      "stateMutability": "view",
      "type": "function"
    },
    {
      "inputs": [
        {
          "internalType": "address",
          "name": "account",
          "type": "address"
        },
        {
          "internalType": "address",
          "name": "operator",
          "type": "address"
        }
      ],
      "name": "isApprovedForAll",
      "outputs": [
        {
          "internalType": "bool",
          "name": "",
          "type": "bool"
        }
      ],
      "stateMutability": "view",
      "type": "function"
    },
    {
      "inputs": [],
      "name": "name",
      "outputs": [
        {
          "internalType": "string",
          "name": "",
          "type": "string"
        }
      ],
      "stateMutability": "view",
      "type": "function"
    },
    {
      "inputs": [],
      "name": "owner",
      "outputs": [
        {
          "internalType": "address",
          "name": "",
          "type": "address"
        }
      ],
      "stateMutability": "view",
      "type": "function"
    },
    {
      "inputs": [],
      "name": "renounceOwnership",
      "outputs": [],
      "stateMutability": "nonpayable",
      "type": "function"
    },
    {
      "inputs": [
        {
          "internalType": "address",
          "name": "from",
          "type": "address"
        },
        {
          "internalType": "address",
          "name": "to",
          "type": "address"
        },
        {
          "internalType": "uint256[]",
          "name": "ids",
          "type": "uint256[]"
        },
        {
          "internalType": "uint256[]",
          "name": "amounts",
          "type": "uint256[]"
        },
        {
          "internalType": "bytes",
          "name": "data",
          "type": "bytes"
        }
      ],
      "name": "safeBatchTransferFrom",
      "outputs": [],
      "stateMutability": "nonpayable",
      "type": "function"
    },
    {
      "inputs": [
        {
          "internalType": "address",
          "name": "from",
          "type": "address"
        },
        {
          "internalType": "address",
          "name": "to",
          "type": "address"
        },
        {
          "internalType": "uint256",
          "name": "id",
          "type": "uint256"
        },
        {
          "internalType": "uint256",
          "name": "amount",
          "type": "uint256"
        },
        {
          "internalType": "bytes",
          "name": "data",
          "type": "bytes"
        }
      ],
      "name": "safeTransferFrom",
      "outputs": [],
      "stateMutability": "nonpayable",
      "type": "function"
    },
    {
      "inputs": [
        {
          "internalType": "address",
          "name": "operator",
          "type": "address"
        },
        {
          "internalType": "bool",
          "name": "approved",
          "type": "bool"
        }
      ],
      "name": "setApprovalForAll",
      "outputs": [],
      "stateMutability": "nonpayable",
      "type": "function"
    },
    {
      "inputs": [
        {
          "internalType": "bytes4",
          "name": "interfaceId",
          "type": "bytes4"
        }
      ],
      "name": "supportsInterface",
      "outputs": [
        {
          "internalType": "bool",
          "name": "",
          "type": "bool"
        }
      ],
      "stateMutability": "view",
      "type": "function"
    },
    {
      "inputs": [
        {
          "internalType": "address",
          "name": "newOwner",
          "type": "address"
        }
      ],
      "name": "transferOwnership",
      "outputs": [],
      "stateMutability": "nonpayable",
      "type": "function"
    },
    {
      "inputs": [
        {
          "internalType": "uint256",
          "name": "",
          "type": "uint256"
        }
      ],
      "name": "uri",
      "outputs": [
        {
          "internalType": "string",
          "name": "",
          "type": "string"
        }
      ],
      "stateMutability": "view",
      "type": "function"
    },
    {
      "inputs": [
        {
          "internalType": "string",
          "name": "_newuri",
          "type": "string"
        }
      ],
      "name": "setURI",
      "outputs": [],
      "stateMutability": "nonpayable",
      "type": "function"
    },
    {
      "inputs": [
        {
          "internalType": "string",
          "name": "_name",
          "type": "string"
        }
      ],
      "name": "setName",
      "outputs": [],
      "stateMutability": "nonpayable",
      "type": "function"
    },
    {
      "inputs": [
        {
          "internalType": "uint256[]",
          "name": "ids",
          "type": "uint256[]"
        },
        {
          "internalType": "uint256[]",
          "name": "amounts",
          "type": "uint256[]"
        }
      ],
      "name": "mintBatch",
      "outputs": [],
      "stateMutability": "nonpayable",
      "type": "function"
    },
    {
      "inputs": [
        {
          "internalType": "uint256",
          "name": "id",
          "type": "uint256"
        },
        {
          "internalType": "uint256",
          "name": "amount",
          "type": "uint256"
        }
      ],
      "name": "mint",
      "outputs": [],
      "stateMutability": "nonpayable",
      "type": "function"
    }
  ],
  "bytecode": "0x60806040523480156200001157600080fd5b506040518060600160405280603f8152602001620035cd603f91396200004c62000040620000aa60201b60201c565b620000b260201b60201c565b6200005d816200017660201b60201c565b50620000a46040518060400160405280601681526020017f53746172746572204e465420436f6c6c656374696f6e000000000000000000008152506200019260201b60201c565b62000410565b600033905090565b60008060009054906101000a900473ffffffffffffffffffffffffffffffffffffffff169050816000806101000a81548173ffffffffffffffffffffffffffffffffffffffff021916908373ffffffffffffffffffffffffffffffffffffffff1602179055508173ffffffffffffffffffffffffffffffffffffffff168173ffffffffffffffffffffffffffffffffffffffff167f8be0079c531659141344cd1fd0a4f28419497f9722a3daafe3b4186f6b6457e060405160405180910390a35050565b80600390805190602001906200018e92919062000278565b5050565b620001a2620001be60201b60201c565b8060059080519060200190620001ba92919062000278565b5050565b620001ce620000aa60201b60201c565b73ffffffffffffffffffffffffffffffffffffffff16620001f46200024f60201b60201c565b73ffffffffffffffffffffffffffffffffffffffff16146200024d576040517f08c379a0000000000000000000000000000000000000000000000000000000008152600401620002449062000389565b60405180910390fd5b565b60008060009054906101000a900473ffffffffffffffffffffffffffffffffffffffff16905090565b8280546200028690620003da565b90600052602060002090601f016020900481019282620002aa5760008555620002f6565b82601f10620002c557805160ff1916838001178555620002f6565b82800160010185558215620002f6579182015b82811115620002f5578251825591602001919060010190620002d8565b5b50905062000305919062000309565b5090565b5b80821115620003245760008160009055506001016200030a565b5090565b600082825260208201905092915050565b7f4f776e61626c653a2063616c6c6572206973206e6f7420746865206f776e6572600082015250565b60006200037160208362000328565b91506200037e8262000339565b602082019050919050565b60006020820190508181036000830152620003a48162000362565b9050919050565b7f4e487b7100000000000000000000000000000000000000000000000000000000600052602260045260246000fd5b60006002820490506001821680620003f357607f821691505b602082108114156200040a5762000409620003ab565b5b50919050565b6131ad80620004206000396000f3fe608060405234801561001057600080fd5b50600436106100ff5760003560e01c8063715018a611610097578063d351cfdc11610066578063d351cfdc14610296578063e985e9c5146102b2578063f242432a146102e2578063f2fde38b146102fe576100ff565b8063715018a6146102365780638da5cb5b14610240578063a22cb4651461025e578063c47f00271461027a576100ff565b80630e89341c116100d35780630e89341c1461019e5780631b2ef1ca146101ce5780632eb2c2d6146101ea5780634e1273f414610206576100ff565b8062fdd58e1461010457806301ffc9a71461013457806302fe53051461016457806306fdde0314610180575b600080fd5b61011e60048036038101906101199190611cb9565b61031a565b60405161012b9190611d08565b60405180910390f35b61014e60048036038101906101499190611d7b565b6103e4565b60405161015b9190611dc3565b60405180910390f35b61017e60048036038101906101799190611f24565b6104c6565b005b6101886104da565b6040516101959190611ff5565b60405180910390f35b6101b860048036038101906101b39190612017565b610568565b6040516101c59190611ff5565b60405180910390f35b6101e860048036038101906101e39190612044565b6105fc565b005b61020460048036038101906101ff91906121ed565b610623565b005b610220600480360381019061021b919061237f565b6106c4565b60405161022d91906124b5565b60405180910390f35b61023e6107dd565b005b6102486107f1565b60405161025591906124e6565b60405180910390f35b6102786004803603810190610273919061252d565b61081a565b005b610294600480360381019061028f9190611f24565b610830565b005b6102b060048036038101906102ab919061256d565b610852565b005b6102cc60048036038101906102c791906125e5565b610879565b6040516102d99190611dc3565b60405180910390f35b6102fc60048036038101906102f79190612625565b61090d565b005b610318600480360381019061031391906126bc565b6109ae565b005b60008073ffffffffffffffffffffffffffffffffffffffff168373ffffffffffffffffffffffffffffffffffffffff16141561038b576040517f08c379a00000000000000000000000000000000000000000000000000000000081526004016103829061275b565b60405180910390fd5b6001600083815260200190815260200160002060008473ffffffffffffffffffffffffffffffffffffffff1673ffffffffffffffffffffffffffffffffffffffff16815260200190815260200160002054905092915050565b60007fd9b67a26000000000000000000000000000000000000000000000000000000007bffffffffffffffffffffffffffffffffffffffffffffffffffffffff1916827bffffffffffffffffffffffffffffffffffffffffffffffffffffffff191614806104af57507f0e89341c000000000000000000000000000000000000000000000000000000007bffffffffffffffffffffffffffffffffffffffffffffffffffffffff1916827bffffffffffffffffffffffffffffffffffffffffffffffffffffffff1916145b806104bf57506104be82610a32565b5b9050919050565b6104ce610a9c565b6104d781610b1a565b50565b600580546104e7906127aa565b80601f0160208091040260200160405190810160405280929190818152602001828054610513906127aa565b80156105605780601f1061053557610100808354040283529160200191610560565b820191906000526020600020905b81548152906001019060200180831161054357829003601f168201915b505050505081565b606060038054610577906127aa565b80601f01602080910402602001604051908101604052809291908181526020018280546105a3906127aa565b80156105f05780601f106105c5576101008083540402835291602001916105f0565b820191906000526020600020905b8154815290600101906020018083116105d357829003601f168201915b50505050509050919050565b610604610a9c565b61061f33838360405180602001604052806000815250610b34565b5050565b61062b610ce6565b73ffffffffffffffffffffffffffffffffffffffff168573ffffffffffffffffffffffffffffffffffffffff16148061067157506106708561066b610ce6565b610879565b5b6106b0576040517f08c379a00000000000000000000000000000000000000000000000000000000081526004016106a79061284e565b60405180910390fd5b6106bd8585858585610cee565b5050505050565b6060815183511461070a576040517f08c379a0000000000000000000000000000000000000000000000000000000008152600401610701906128e0565b60405180910390fd5b6000835167ffffffffffffffff81111561072757610726611df9565b5b6040519080825280602002602001820160405280156107555781602001602082028036833780820191505090505b50905060005b84518110156107d2576107a285828151811061077a57610779612900565b5b602002602001015185838151811061079557610794612900565b5b602002602001015161031a565b8282815181106107b5576107b4612900565b5b602002602001018181525050806107cb9061295e565b905061075b565b508091505092915050565b6107e5610a9c565b6107ef6000611013565b565b60008060009054906101000a900473ffffffffffffffffffffffffffffffffffffffff16905090565b61082c610825610ce6565b83836110d7565b5050565b610838610a9c565b806005908051906020019061084e929190611b6e565b5050565b61085a610a9c565b61087533838360405180602001604052806000815250611244565b5050565b6000600260008473ffffffffffffffffffffffffffffffffffffffff1673ffffffffffffffffffffffffffffffffffffffff16815260200190815260200160002060008373ffffffffffffffffffffffffffffffffffffffff1673ffffffffffffffffffffffffffffffffffffffff16815260200190815260200160002060009054906101000a900460ff16905092915050565b610915610ce6565b73ffffffffffffffffffffffffffffffffffffffff168573ffffffffffffffffffffffffffffffffffffffff16148061095b575061095a85610955610ce6565b610879565b5b61099a576040517f08c379a00000000000000000000000000000000000000000000000000000000081526004016109919061284e565b60405180910390fd5b6109a78585858585611472565b5050505050565b6109b6610a9c565b600073ffffffffffffffffffffffffffffffffffffffff168173ffffffffffffffffffffffffffffffffffffffff161415610a26576040517f08c379a0000000000000000000000000000000000000000000000000000000008152600401610a1d90612a19565b60405180910390fd5b610a2f81611013565b50565b60007f01ffc9a7000000000000000000000000000000000000000000000000000000007bffffffffffffffffffffffffffffffffffffffffffffffffffffffff1916827bffffffffffffffffffffffffffffffffffffffffffffffffffffffff1916149050919050565b610aa4610ce6565b73ffffffffffffffffffffffffffffffffffffffff16610ac26107f1565b73ffffffffffffffffffffffffffffffffffffffff1614610b18576040517f08c379a0000000000000000000000000000000000000000000000000000000008152600401610b0f90612a85565b60405180910390fd5b565b8060039080519060200190610b30929190611b6e565b5050565b600073ffffffffffffffffffffffffffffffffffffffff168473ffffffffffffffffffffffffffffffffffffffff161415610ba4576040517f08c379a0000000000000000000000000000000000000000000000000000000008152600401610b9b90612b17565b60405180910390fd5b6000610bae610ce6565b90506000610bbb85611711565b90506000610bc885611711565b9050610bd98360008985858961178b565b846001600088815260200190815260200160002060008973ffffffffffffffffffffffffffffffffffffffff1673ffffffffffffffffffffffffffffffffffffffff1681526020019081526020016000206000828254610c399190612b37565b925050819055508673ffffffffffffffffffffffffffffffffffffffff16600073ffffffffffffffffffffffffffffffffffffffff168473ffffffffffffffffffffffffffffffffffffffff167fc3d58168c5ae7397731d063d5bbf3d657854427343f4c083240f7aacaa2d0f628989604051610cb7929190612b8d565b60405180910390a4610cce83600089858589611793565b610cdd8360008989898961179b565b50505050505050565b600033905090565b8151835114610d32576040517f08c379a0000000000000000000000000000000000000000000000000000000008152600401610d2990612c28565b60405180910390fd5b600073ffffffffffffffffffffffffffffffffffffffff168473ffffffffffffffffffffffffffffffffffffffff161415610da2576040517f08c379a0000000000000000000000000000000000000000000000000000000008152600401610d9990612cba565b60405180910390fd5b6000610dac610ce6565b9050610dbc81878787878761178b565b60005b8451811015610f70576000858281518110610ddd57610ddc612900565b5b602002602001015190506000858381518110610dfc57610dfb612900565b5b6020026020010151905060006001600084815260200190815260200160002060008b73ffffffffffffffffffffffffffffffffffffffff1673ffffffffffffffffffffffffffffffffffffffff16815260200190815260200160002054905081811015610e9e576040517f08c379a0000000000000000000000000000000000000000000000000000000008152600401610e9590612d4c565b60405180910390fd5b8181036001600085815260200190815260200160002060008c73ffffffffffffffffffffffffffffffffffffffff1673ffffffffffffffffffffffffffffffffffffffff16815260200190815260200160002081905550816001600085815260200190815260200160002060008b73ffffffffffffffffffffffffffffffffffffffff1673ffffffffffffffffffffffffffffffffffffffff1681526020019081526020016000206000828254610f559190612b37565b9250508190555050505080610f699061295e565b9050610dbf565b508473ffffffffffffffffffffffffffffffffffffffff168673ffffffffffffffffffffffffffffffffffffffff168273ffffffffffffffffffffffffffffffffffffffff167f4a39dc06d4c0dbc64b70af90fd698a233a518aa5d07e595d983b8c0526c8f7fb8787604051610fe7929190612d6c565b60405180910390a4610ffd818787878787611793565b61100b818787878787611973565b505050505050565b60008060009054906101000a900473ffffffffffffffffffffffffffffffffffffffff169050816000806101000a81548173ffffffffffffffffffffffffffffffffffffffff021916908373ffffffffffffffffffffffffffffffffffffffff1602179055508173ffffffffffffffffffffffffffffffffffffffff168173ffffffffffffffffffffffffffffffffffffffff167f8be0079c531659141344cd1fd0a4f28419497f9722a3daafe3b4186f6b6457e060405160405180910390a35050565b8173ffffffffffffffffffffffffffffffffffffffff168373ffffffffffffffffffffffffffffffffffffffff161415611146576040517f08c379a000000000000000000000000000000000000000000000000000000000815260040161113d90612e15565b60405180910390fd5b80600260008573ffffffffffffffffffffffffffffffffffffffff1673ffffffffffffffffffffffffffffffffffffffff16815260200190815260200160002060008473ffffffffffffffffffffffffffffffffffffffff1673ffffffffffffffffffffffffffffffffffffffff16815260200190815260200160002060006101000a81548160ff0219169083151502179055508173ffffffffffffffffffffffffffffffffffffffff168373ffffffffffffffffffffffffffffffffffffffff167f17307eab39ab6107e8899845ad3d59bd9653f200f220920489ca2b5937696c31836040516112379190611dc3565b60405180910390a3505050565b600073ffffffffffffffffffffffffffffffffffffffff168473ffffffffffffffffffffffffffffffffffffffff1614156112b4576040517f08c379a00000000000000000000000000000000000000000000000000000000081526004016112ab90612b17565b60405180910390fd5b81518351146112f8576040517f08c379a00000000000000000000000000000000000000000000000000000000081526004016112ef90612c28565b60405180910390fd5b6000611302610ce6565b90506113138160008787878761178b565b60005b84518110156113cd5783818151811061133257611331612900565b5b60200260200101516001600087848151811061135157611350612900565b5b6020026020010151815260200190815260200160002060008873ffffffffffffffffffffffffffffffffffffffff1673ffffffffffffffffffffffffffffffffffffffff16815260200190815260200160002060008282546113b39190612b37565b9250508190555080806113c59061295e565b915050611316565b508473ffffffffffffffffffffffffffffffffffffffff16600073ffffffffffffffffffffffffffffffffffffffff168273ffffffffffffffffffffffffffffffffffffffff167f4a39dc06d4c0dbc64b70af90fd698a233a518aa5d07e595d983b8c0526c8f7fb8787604051611445929190612d6c565b60405180910390a461145c81600087878787611793565b61146b81600087878787611973565b5050505050565b600073ffffffffffffffffffffffffffffffffffffffff168473ffffffffffffffffffffffffffffffffffffffff1614156114e2576040517f08c379a00000000000000000000000000000000000000000000000000000000081526004016114d990612cba565b60405180910390fd5b60006114ec610ce6565b905060006114f985611711565b9050600061150685611711565b905061151683898985858961178b565b60006001600088815260200190815260200160002060008a73ffffffffffffffffffffffffffffffffffffffff1673ffffffffffffffffffffffffffffffffffffffff168152602001908152602001600020549050858110156115ae576040517f08c379a00000000000000000000000000000000000000000000000000000000081526004016115a590612d4c565b60405180910390fd5b8581036001600089815260200190815260200160002060008b73ffffffffffffffffffffffffffffffffffffffff1673ffffffffffffffffffffffffffffffffffffffff16815260200190815260200160002081905550856001600089815260200190815260200160002060008a73ffffffffffffffffffffffffffffffffffffffff1673ffffffffffffffffffffffffffffffffffffffff16815260200190815260200160002060008282546116659190612b37565b925050819055508773ffffffffffffffffffffffffffffffffffffffff168973ffffffffffffffffffffffffffffffffffffffff168573ffffffffffffffffffffffffffffffffffffffff167fc3d58168c5ae7397731d063d5bbf3d657854427343f4c083240f7aacaa2d0f628a8a6040516116e2929190612b8d565b60405180910390a46116f8848a8a86868a611793565b611706848a8a8a8a8a61179b565b505050505050505050565b60606000600167ffffffffffffffff8111156117305761172f611df9565b5b60405190808252806020026020018201604052801561175e5781602001602082028036833780820191505090505b509050828160008151811061177657611775612900565b5b60200260200101818152505080915050919050565b505050505050565b505050505050565b6117ba8473ffffffffffffffffffffffffffffffffffffffff16611b4b565b1561196b578373ffffffffffffffffffffffffffffffffffffffff1663f23a6e6187878686866040518663ffffffff1660e01b8152600401611800959493929190612e8a565b6020604051808303816000875af192505050801561183c57506040513d601f19601f820116820180604052508101906118399190612ef9565b60015b6118e257611848612f33565b806308c379a014156118a5575061185d612f55565b8061186857506118a7565b806040517f08c379a000000000000000000000000000000000000000000000000000000000815260040161189c9190611ff5565b60405180910390fd5b505b6040517f08c379a00000000000000000000000000000000000000000000000000000000081526004016118d99061305d565b60405180910390fd5b63f23a6e6160e01b7bffffffffffffffffffffffffffffffffffffffffffffffffffffffff1916817bffffffffffffffffffffffffffffffffffffffffffffffffffffffff191614611969576040517f08c379a0000000000000000000000000000000000000000000000000000000008152600401611960906130ef565b60405180910390fd5b505b505050505050565b6119928473ffffffffffffffffffffffffffffffffffffffff16611b4b565b15611b43578373ffffffffffffffffffffffffffffffffffffffff1663bc197c8187878686866040518663ffffffff1660e01b81526004016119d895949392919061310f565b6020604051808303816000875af1925050508015611a1457506040513d601f19601f82011682018060405250810190611a119190612ef9565b60015b611aba57611a20612f33565b806308c379a01415611a7d5750611a35612f55565b80611a405750611a7f565b806040517f08c379a0000000000000000000000000000000000000000000000000000000008152600401611a749190611ff5565b60405180910390fd5b505b6040517f08c379a0000000000000000000000000000000000000000000000000000000008152600401611ab19061305d565b60405180910390fd5b63bc197c8160e01b7bffffffffffffffffffffffffffffffffffffffffffffffffffffffff1916817bffffffffffffffffffffffffffffffffffffffffffffffffffffffff191614611b41576040517f08c379a0000000000000000000000000000000000000000000000000000000008152600401611b38906130ef565b60405180910390fd5b505b505050505050565b6000808273ffffffffffffffffffffffffffffffffffffffff163b119050919050565b828054611b7a906127aa565b90600052602060002090601f016020900481019282611b9c5760008555611be3565b82601f10611bb557805160ff1916838001178555611be3565b82800160010185558215611be3579182015b82811115611be2578251825591602001919060010190611bc7565b5b509050611bf09190611bf4565b5090565b5b80821115611c0d576000816000905550600101611bf5565b5090565b6000604051905090565b600080fd5b600080fd5b600073ffffffffffffffffffffffffffffffffffffffff82169050919050565b6000611c5082611c25565b9050919050565b611c6081611c45565b8114611c6b57600080fd5b50565b600081359050611c7d81611c57565b92915050565b6000819050919050565b611c9681611c83565b8114611ca157600080fd5b50565b600081359050611cb381611c8d565b92915050565b60008060408385031215611cd057611ccf611c1b565b5b6000611cde85828601611c6e565b9250506020611cef85828601611ca4565b9150509250929050565b611d0281611c83565b82525050565b6000602082019050611d1d6000830184611cf9565b92915050565b60007fffffffff0000000000000000000000000000000000000000000000000000000082169050919050565b611d5881611d23565b8114611d6357600080fd5b50565b600081359050611d7581611d4f565b92915050565b600060208284031215611d9157611d90611c1b565b5b6000611d9f84828501611d66565b91505092915050565b60008115159050919050565b611dbd81611da8565b82525050565b6000602082019050611dd86000830184611db4565b92915050565b600080fd5b600080fd5b6000601f19601f8301169050919050565b7f4e487b7100000000000000000000000000000000000000000000000000000000600052604160045260246000fd5b611e3182611de8565b810181811067ffffffffffffffff82111715611e5057611e4f611df9565b5b80604052505050565b6000611e63611c11565b9050611e6f8282611e28565b919050565b600067ffffffffffffffff821115611e8f57611e8e611df9565b5b611e9882611de8565b9050602081019050919050565b82818337600083830152505050565b6000611ec7611ec284611e74565b611e59565b905082815260208101848484011115611ee357611ee2611de3565b5b611eee848285611ea5565b509392505050565b600082601f830112611f0b57611f0a611dde565b5b8135611f1b848260208601611eb4565b91505092915050565b600060208284031215611f3a57611f39611c1b565b5b600082013567ffffffffffffffff811115611f5857611f57611c20565b5b611f6484828501611ef6565b91505092915050565b600081519050919050565b600082825260208201905092915050565b60005b83811015611fa7578082015181840152602081019050611f8c565b83811115611fb6576000848401525b50505050565b6000611fc782611f6d565b611fd18185611f78565b9350611fe1818560208601611f89565b611fea81611de8565b840191505092915050565b6000602082019050818103600083015261200f8184611fbc565b905092915050565b60006020828403121561202d5761202c611c1b565b5b600061203b84828501611ca4565b91505092915050565b6000806040838503121561205b5761205a611c1b565b5b600061206985828601611ca4565b925050602061207a85828601611ca4565b9150509250929050565b600067ffffffffffffffff82111561209f5761209e611df9565b5b602082029050602081019050919050565b600080fd5b60006120c86120c384612084565b611e59565b905080838252602082019050602084028301858111156120eb576120ea6120b0565b5b835b8181101561211457806121008882611ca4565b8452602084019350506020810190506120ed565b5050509392505050565b600082601f83011261213357612132611dde565b5b81356121438482602086016120b5565b91505092915050565b600067ffffffffffffffff82111561216757612166611df9565b5b61217082611de8565b9050602081019050919050565b600061219061218b8461214c565b611e59565b9050828152602081018484840111156121ac576121ab611de3565b5b6121b7848285611ea5565b509392505050565b600082601f8301126121d4576121d3611dde565b5b81356121e484826020860161217d565b91505092915050565b600080600080600060a0868803121561220957612208611c1b565b5b600061221788828901611c6e565b955050602061222888828901611c6e565b945050604086013567ffffffffffffffff81111561224957612248611c20565b5b6122558882890161211e565b935050606086013567ffffffffffffffff81111561227657612275611c20565b5b6122828882890161211e565b925050608086013567ffffffffffffffff8111156122a3576122a2611c20565b5b6122af888289016121bf565b9150509295509295909350565b600067ffffffffffffffff8211156122d7576122d6611df9565b5b602082029050602081019050919050565b60006122fb6122f6846122bc565b611e59565b9050808382526020820190506020840283018581111561231e5761231d6120b0565b5b835b8181101561234757806123338882611c6e565b845260208401935050602081019050612320565b5050509392505050565b600082601f83011261236657612365611dde565b5b81356123768482602086016122e8565b91505092915050565b6000806040838503121561239657612395611c1b565b5b600083013567ffffffffffffffff8111156123b4576123b3611c20565b5b6123c085828601612351565b925050602083013567ffffffffffffffff8111156123e1576123e0611c20565b5b6123ed8582860161211e565b9150509250929050565b600081519050919050565b600082825260208201905092915050565b6000819050602082019050919050565b61242c81611c83565b82525050565b600061243e8383612423565b60208301905092915050565b6000602082019050919050565b6000612462826123f7565b61246c8185612402565b935061247783612413565b8060005b838110156124a857815161248f8882612432565b975061249a8361244a565b92505060018101905061247b565b5085935050505092915050565b600060208201905081810360008301526124cf8184612457565b905092915050565b6124e081611c45565b82525050565b60006020820190506124fb60008301846124d7565b92915050565b61250a81611da8565b811461251557600080fd5b50565b60008135905061252781612501565b92915050565b6000806040838503121561254457612543611c1b565b5b600061255285828601611c6e565b925050602061256385828601612518565b9150509250929050565b6000806040838503121561258457612583611c1b565b5b600083013567ffffffffffffffff8111156125a2576125a1611c20565b5b6125ae8582860161211e565b925050602083013567ffffffffffffffff8111156125cf576125ce611c20565b5b6125db8582860161211e565b9150509250929050565b600080604083850312156125fc576125fb611c1b565b5b600061260a85828601611c6e565b925050602061261b85828601611c6e565b9150509250929050565b600080600080600060a0868803121561264157612640611c1b565b5b600061264f88828901611c6e565b955050602061266088828901611c6e565b945050604061267188828901611ca4565b935050606061268288828901611ca4565b925050608086013567ffffffffffffffff8111156126a3576126a2611c20565b5b6126af888289016121bf565b9150509295509295909350565b6000602082840312156126d2576126d1611c1b565b5b60006126e084828501611c6e565b91505092915050565b7f455243313135353a2061646472657373207a65726f206973206e6f742061207660008201527f616c6964206f776e657200000000000000000000000000000000000000000000602082015250565b6000612745602a83611f78565b9150612750826126e9565b604082019050919050565b6000602082019050818103600083015261277481612738565b9050919050565b7f4e487b7100000000000000000000000000000000000000000000000000000000600052602260045260246000fd5b600060028204905060018216806127c257607f821691505b602082108114156127d6576127d561277b565b5b50919050565b7f455243313135353a2063616c6c6572206973206e6f7420746f6b656e206f776e60008201527f6572206f7220617070726f766564000000000000000000000000000000000000602082015250565b6000612838602e83611f78565b9150612843826127dc565b604082019050919050565b600060208201905081810360008301526128678161282b565b9050919050565b7f455243313135353a206163636f756e747320616e6420696473206c656e67746860008201527f206d69736d617463680000000000000000000000000000000000000000000000602082015250565b60006128ca602983611f78565b91506128d58261286e565b604082019050919050565b600060208201905081810360008301526128f9816128bd565b9050919050565b7f4e487b7100000000000000000000000000000000000000000000000000000000600052603260045260246000fd5b7f4e487b7100000000000000000000000000000000000000000000000000000000600052601160045260246000fd5b600061296982611c83565b91507fffffffffffffffffffffffffffffffffffffffffffffffffffffffffffffffff82141561299c5761299b61292f565b5b600182019050919050565b7f4f776e61626c653a206e6577206f776e657220697320746865207a65726f206160008201527f6464726573730000000000000000000000000000000000000000000000000000602082015250565b6000612a03602683611f78565b9150612a0e826129a7565b604082019050919050565b60006020820190508181036000830152612a32816129f6565b9050919050565b7f4f776e61626c653a2063616c6c6572206973206e6f7420746865206f776e6572600082015250565b6000612a6f602083611f78565b9150612a7a82612a39565b602082019050919050565b60006020820190508181036000830152612a9e81612a62565b9050919050565b7f455243313135353a206d696e7420746f20746865207a65726f2061646472657360008201527f7300000000000000000000000000000000000000000000000000000000000000602082015250565b6000612b01602183611f78565b9150612b0c82612aa5565b604082019050919050565b60006020820190508181036000830152612b3081612af4565b9050919050565b6000612b4282611c83565b9150612b4d83611c83565b9250827fffffffffffffffffffffffffffffffffffffffffffffffffffffffffffffffff03821115612b8257612b8161292f565b5b828201905092915050565b6000604082019050612ba26000830185611cf9565b612baf6020830184611cf9565b9392505050565b7f455243313135353a2069647320616e6420616d6f756e7473206c656e6774682060008201527f6d69736d61746368000000000000000000000000000000000000000000000000602082015250565b6000612c12602883611f78565b9150612c1d82612bb6565b604082019050919050565b60006020820190508181036000830152612c4181612c05565b9050919050565b7f455243313135353a207472616e7366657220746f20746865207a65726f20616460008201527f6472657373000000000000000000000000000000000000000000000000000000602082015250565b6000612ca4602583611f78565b9150612caf82612c48565b604082019050919050565b60006020820190508181036000830152612cd381612c97565b9050919050565b7f455243313135353a20696e73756666696369656e742062616c616e636520666f60008201527f72207472616e7366657200000000000000000000000000000000000000000000602082015250565b6000612d36602a83611f78565b9150612d4182612cda565b604082019050919050565b60006020820190508181036000830152612d6581612d29565b9050919050565b60006040820190508181036000830152612d868185612457565b90508181036020830152612d9a8184612457565b90509392505050565b7f455243313135353a2073657474696e6720617070726f76616c2073746174757360008201527f20666f722073656c660000000000000000000000000000000000000000000000602082015250565b6000612dff602983611f78565b9150612e0a82612da3565b604082019050919050565b60006020820190508181036000830152612e2e81612df2565b9050919050565b600081519050919050565b600082825260208201905092915050565b6000612e5c82612e35565b612e668185612e40565b9350612e76818560208601611f89565b612e7f81611de8565b840191505092915050565b600060a082019050612e9f60008301886124d7565b612eac60208301876124d7565b612eb96040830186611cf9565b612ec66060830185611cf9565b8181036080830152612ed88184612e51565b90509695505050505050565b600081519050612ef381611d4f565b92915050565b600060208284031215612f0f57612f0e611c1b565b5b6000612f1d84828501612ee4565b91505092915050565b60008160e01c9050919050565b600060033d1115612f525760046000803e612f4f600051612f26565b90505b90565b600060443d1015612f6557612fe8565b612f6d611c11565b60043d036004823e80513d602482011167ffffffffffffffff82111715612f95575050612fe8565b808201805167ffffffffffffffff811115612fb35750505050612fe8565b80602083010160043d038501811115612fd0575050505050612fe8565b612fdf82602001850186611e28565b82955050505050505b90565b7f455243313135353a207472616e7366657220746f206e6f6e2d4552433131353560008201527f526563656976657220696d706c656d656e746572000000000000000000000000602082015250565b6000613047603483611f78565b915061305282612feb565b604082019050919050565b600060208201905081810360008301526130768161303a565b9050919050565b7f455243313135353a204552433131353552656365697665722072656a6563746560008201527f6420746f6b656e73000000000000000000000000000000000000000000000000602082015250565b60006130d9602883611f78565b91506130e48261307d565b604082019050919050565b60006020820190508181036000830152613108816130cc565b9050919050565b600060a08201905061312460008301886124d7565b61313160208301876124d7565b81810360408301526131438186612457565b905081810360608301526131578185612457565b9050818103608083015261316b8184612e51565b9050969550505050505056fea26469706673582212206466a1976205d2592252027e8be22b753ef6df1fe646610a0b33fab71e8e9a2864736f6c634300080a0033697066733a2f2f516d574378575a434865355045596d7153436f59544e77614256363937343867524a724c796638484138385263672f7b69647d2e6a736f6e",
  "immutableReferences": {},
  "source": "// SPDX-License-Identifier: MIT\npragma solidity >=0.4.22 <0.9.0;\n\nimport '@openzeppelin/contracts/token/ERC1155/ERC1155.sol';\nimport '@openzeppelin/contracts/access/Ownable.sol';\n\ncontract ArtCollectible is Ownable, ERC1155 {\n    // Base URI\n    string private baseURI;\n    string public name;\n\n    constructor()\n        ERC1155(\n            'ipfs://QmWCxWZCHe5PEYmqSCoYTNwaBV69748gRJrLyf8HA88Rcg/{id}.json'\n        )\n    {\n        setName('Starter NFT Collection');\n    }\n\n    function setURI(string memory _newuri) public onlyOwner {\n        _setURI(_newuri);\n    }\n\n    function setName(string memory _name) public onlyOwner {\n        name = _name;\n    }\n\n    function mintBatch(uint256[] memory ids, uint256[] memory amounts)\n        public\n        onlyOwner\n    {\n        _mintBatch(msg.sender, ids, amounts, '');\n    }\n\n    function mint(uint256 id, uint256 amount) public onlyOwner {\n        _mint(msg.sender, id, amount, '');\n    }\n}\n",
  "sourcePath": "/Users/georgealexanderlugo/Desktop/nft_collection/bulk_nft_uploader/bulk_mint_nfts/contracts/ArtCollectible.sol",
  "compiler": {
    "name": "solc",
    "version": "0.8.10+commit.fc410830.Emscripten.clang"
  },
  "schemaVersion": "3.4.16",
  "updatedAt": "2023-11-15T23:19:05.777Z",
  "devdoc": {
    "kind": "dev",
    "methods": {
      "balanceOf(address,uint256)": {
        "details": "See {IERC1155-balanceOf}. Requirements: - `account` cannot be the zero address."
      },
      "balanceOfBatch(address[],uint256[])": {
        "details": "See {IERC1155-balanceOfBatch}. Requirements: - `accounts` and `ids` must have the same length."
      },
      "isApprovedForAll(address,address)": {
        "details": "See {IERC1155-isApprovedForAll}."
      },
      "owner()": {
        "details": "Returns the address of the current owner."
      },
      "renounceOwnership()": {
        "details": "Leaves the contract without owner. It will not be possible to call `onlyOwner` functions. Can only be called by the current owner. NOTE: Renouncing ownership will leave the contract without an owner, thereby disabling any functionality that is only available to the owner."
      },
      "safeBatchTransferFrom(address,address,uint256[],uint256[],bytes)": {
        "details": "See {IERC1155-safeBatchTransferFrom}."
      },
      "safeTransferFrom(address,address,uint256,uint256,bytes)": {
        "details": "See {IERC1155-safeTransferFrom}."
      },
      "setApprovalForAll(address,bool)": {
        "details": "See {IERC1155-setApprovalForAll}."
      },
      "supportsInterface(bytes4)": {
        "details": "See {IERC165-supportsInterface}."
      },
      "transferOwnership(address)": {
        "details": "Transfers ownership of the contract to a new account (`newOwner`). Can only be called by the current owner."
      },
      "uri(uint256)": {
        "details": "See {IERC1155MetadataURI-uri}. This implementation returns the same URI for *all* token types. It relies on the token type ID substitution mechanism https://eips.ethereum.org/EIPS/eip-1155#metadata[defined in the EIP]. Clients calling this function must replace the `\\{id\\}` substring with the actual token type ID."
      }
    },
    "version": 1
  },
  "userdoc": {
    "kind": "user",
    "methods": {},
    "version": 1
  }
}